:020000020000FC
:020000001CC022
:02002C0056C0BC
:1000380086C0CFEFCDBFD8E0DEBFA097B1E0A0E08B
:100048008FE78D938AE08D9383EB8D938BE98D9366
:100058008AEC8D9389ED8D9389EF8D938BE08D9349
:100068008BEF8D938BED8D938FEF8AB984B980E0F8
:1000780086BD8AEF87BD83E085BD82E084BD82E0CE
:1000880080936E0080E08093850080E080938400F8
:1000980080E38093890084ED8093880083E08093D7
:1000A800810082E08093800082E080936F0080E08E
:1000B80080937C0087E880937A00789444E190E00C
:1000C80060E070E050E087EC80937A000000000068
:1000D800FDCF4A9580E08093850080E0809384007E
:1000E80009F0189544E187EC80937A0080917A00B2
:1000F80086FDFCCF3091780084EC3BB91895389F89
:1001080020E1FF24EE24DD24FF27000F111FDD1C52
:10011800EE1CFF1C2A9509F40CC0E0E132913D5F0A
:1001280033FD30833081305D37FD3083ED30B1F7FA
:10013800ECCFE52EE62EF72E5F70607F18951895A8
:00000001FF
