:1000000033C0000001C20000FFC10000FDC10000BC
:10001000FBC10000F9C10000F7C10000F5C10000FC
:10002000F3C10000F1C10000EFC10000EDC100000C
:10003000EBC10000E9C10000E7C10000E5C100001C
:10004000E3C10000E1C10000DFC10000DDC100002C
:10005000DBC10000D9C10000D7C10000D5C100003C
:10006000D3C10000D1C1000011241FBECFEFD8E0E2
:0C007000DEBFCDBF03D000C0F894FFCF6E
:10007C00CF93DF93CDB7DEB7C85CD1090FB6F89438
:10008C00DEBF0FBECDBF8E010F5F1F4F84E6F801A0
:10009C0011928A95E9F784B18F6384B98AB18C6F18
:1000AC008AB9519A50981092C00088E98093C10087
:1000BC0086E08093C20087E690E09093C500809321
:1000CC00C4008CE094E0A0E028E43091C00035FF3F
:1000DC00FCCF2093C6000196A11DFC012491A7FD25
:1000EC0020812111F2CF8091C00087FFFCCF80913D
:1000FC00C600873589F521E534E040E09AE080912F
:10010C00C00085FFFCCF9093C6002F5F3F4F4F4F31
:10011C00F901949147FD90819111F1CFBE016B597A
:10012C007F4F80E090E0D5D023E734E040E09AE0C8
:10013C008091C00085FFFCCF9093C6002F5F3F4F8E
:10014C004F4FF901949147FD90819111F1CF80911E
:10015C00C00087FFC8CFCBCF823579F52FE734E0CD
:10016C0040E09AE08091C00085FFFCCF9093C600E0
:10017C002F5F3F4F4F4FF901949147FD90819111A3
:10018C00F1CFCE018B599F4F4CD023E734E040E0A8
:10019C009AE08091C00085FFFCCF9093C6002F5F42
:1001AC003F4F4F4FF901949147FD90819111F1CF41
:1001BC008091C00087FF97CF9ACF873409F093CFF7
:1001CC0025E834E040E09AE08091C00085FFFCCF48
:1001DC009093C6002F5F3F4F4F4FF901949147FD0D
:1001EC0090819111F1CF44E650E0B80184E190E0A8
:1001FC003BD023E734E040E09AE08091C00085FFDB
:10020C00FCCF9093C6002F5F3F4F4F4FF901949155
:10021C0047FD90819111F1CF8091C00087FF63CF92
:02022C0066CF9B
:10022E00CF93DF93EC0144E650E0BC0184E190E013
:10023E006AD088818E32A1F02AE034E040E0FE01DF
:10024E009091C00095FFFCCF2093C6009091C00006
:10025E0095FFFCCF8093C600319680818E3281F758
:06026E00DF91CF9108951D
:10027400EF92FF920F931F93CF93DF934115510594
:1002840061F0811524E0920780F082E0DF91CF9144
:100294001F910F91FF90EF90089580E0DF91CF912F
:1002A4001F910F91FF90EF9008957B01FB016191E5
:1002B4008F01E40EF51EEC0103C0F80161918F017A
:1002C400CE015BD08111E2CF0E151F0531F32196CB
:0A02D400C115F4E0DF07C9F2F0CF16
:1002DE009C01FB01E80FF91F9091C00097FFFCCF26
:1002EE009091C6009923C1F39E3221F02F5F3F4FAC
:1002FE009193F2CFFB01E20FF31F908344E650E09F
:06030E0084E190E0B0CF95
:10031400EF92FF920F931F93CF93DF9341155105F3
:1003240061F0811524E0920780F082E0DF91CF91A3
:100334001F910F91FF90EF90089580E0DF91CF918E
:100344001F910F91FF90EF9008958B017C0121E0A4
:10035400E21AF108E40EF51EEC01B801CE013FD01B
:100364008111E4CFCE15DF0541F321960F5F1F4FB6
:0A037400C11584E0D807C9F2F0CFEC
:10037E00FF920F931F93CF93DF931F92CDB7DEB7EC
:10038E001982811524E0920740F082E00F90DF91F0
:10039E00CF911F910F91FF900895F62E8C01BE0103
:1003AE006F5F7F4F17D08111F1CF99819F1571F338
:1003BE006F2DC80119D08111E9CFBE016F5F7F4F3C
:1003CE00C80108D08111E2CF81E099819F11DECF63
:0403DE0080E0DCCF10
:1003E200F999FECF92BD81BDF89A80B5FB01808359
:0403F20080E008950A
:1003F600F999FECF92BD81BD60BDFA9AF99A80E067
:02040600089557
:02040800FBCD2A
:10040A003F00486F6C6120496E67726573612057BF
:10041A002050617261206573637269626972202C6F
:10042A0020522070617261206C656572206F2047CE
:10043A00207061726120626F72726172206C612039
:10044A00454550524F4D000A4573637269626520F3
:10045A00706172612066696E616C697A6172206985
:10046A006E6772657361202E000A436F6D706C654A
:10047A007461646F000A4C656572000A4545505202
:0E048A004F4D20466F726D61746561646100B4
:00000001FF
