:020000020000FC
:020000001CC022
:0200040054C0E6
:100038004AC0CFEFCDBFD8E0DEBFA097B1E0A0E0C7
:100048000FE70D930AE00D9303EB0D930BE90D9366
:100058000AEC0D9309ED0D9309EF0D930BE00D9349
:100068000BEF0D930BED0D931BEF1AB914E01BB9B1
:100078001FEF14B910E016BD19EF17BD13E015BD39
:1000880012E014BD12E010936E0013E010936900A3
:1000980011E01DBB11E01CBB78940AEF54E000008E
:1000A80000000C94530023952A3009F018953395D5
:1000B80020E03A3009F01895439530E04A3009F0CD
:1000C8001895000003C00A95C1F0189510E01BB9F7
:1000D800B1E0A0E0B10DA21FAC91ABB911E015B928
:1000E80010D010E01BB9B1E0A0E0B10DA31FAC9196
:1000F800ABB912E015B905D0E9CF5A9539F30AEF33
:1001080018956AE070EA0000000000000000000096
:0E011800000000007A95B9F76A95A1F70895E6
:00000001FF
