:020000020000FC
:040000000C94260036
:100048000C94150157D110E090E00EEF0AB90E9408
:100058006F0108E20BB900E20BB90E946F0108E2D8
:100068000BB900E20BB908E80BB900E80BB90E941C
:100078006F0108E00BB900E00BB908EE0BB900EE10
:100088000BB90E946F0108E00BB900E00BB908E654
:100098000BB900E60BB90E946F0108E00BB900E04C
:1000A8000BB908E10BB900E10BB90E946F0108E92F
:1000B8000093C10007E60093C40078940C94640090
:1000C8000000000000000FE007B900E008B900E0F8
:1000D80004B90FE005B900000000000003B10F707B
:1000E8000E3019F470E00C9486000D3019F471E0AC
:1000F8000C9486000B3019F472E00C9486000730DB
:1001080069F773E000000000000000E007B90FE0A5
:1001180004B90FE008B900E005B9000000000000CC
:1001280006B10F700E3021F400E0700F0C94AC0093
:100138000D3021F404E0700F0C94AC000B3021F466
:1001480008E0700F0C94AC00073051F70CE0700F0A
:10015800703019F480E00C94E400713019F481E0F7
:100168000C94E400723019F482E00C94E4007430CA
:1001780019F483E00C94E400753019F484E00C94CD
:10018800E400763019F485E00C94E400783019F432
:1001980086E00C94E400793019F487E00C94E400CC
:1001A8007A3019F488E00C94E4007D3019F489E081
:1001B8000C94E400733089F50E9432010C9411010B
:1001C8009395913111F40E944501913211F40E94E6
:1001D8003901A12F0C91080F50E060E0500F600F1B
:1001E8000093C6000091C0000074E1F300E400939E
:1001F800C000607F550F550F550F550F0CE0060FC7
:100208000BB904E0060F0BB90CE0050F0BB904E0BD
:10021800050F0BB90000000000000E9460010C945B
:1002280064009395913169F19232F9F00091C6001A
:1002380050E060E0500F600F607F550F550F550F6D
:10024800550F0CE0060F0BB904E0060F0BB90CE0D4
:10025800050F0BB904E0050F0BB918951395143069
:1002680009F410E00E946F01089590E008E00BB9CE
:1002780000E00BB908E10BB900E10BB90E946F016E
:10028800189508EC0BB900EC0BB908E00BB900E0C5
:100298000BB90E946F01189538EC28EC000000009B
:1002A800000000000000000000002A95B9F73A9508
:1002B800A1F74A9589F7089520E138EC48EC000049
:1002C80000000000000000004A95C9F73A95B1F710
:1002D8002A9599F7089520E138EC48EC00000000D1
:1002E8000000000000004A9551F73A9539F72A9521
:1002F80021F70895A0E1B0E000E30D9301E60D9326
:0C0308000BE60D930D93A0E1B0E008950A
:00000001FF
