:100000000C9434000C94AF000C94AF000C94AF002F
:100010000C94AF000C94AF000C94AF000C94AF00A4
:100020000C94AF000C94AF000C94AF000C94AF0094
:100030000C94AF000C94AF000C94AF000C94AF0084
:100040000C94AF000C94AF000C94AF000C94AF0074
:100050000C94AF000C94AF000C94AF000C94AF0064
:100060000C94AF000C94AF0011241FBECFEFD8E06A
:10007000DEBFCDBF0E9443000C943E00F894FFCF3A
:05008000686F6C6100D7
:10008600CF93DF93CDB7DEB7C456D1090FB6F89438
:10009600DEBF0FBECDBF8AB18C618AB90E948A00CD
:1000A60060E870E080E00E94740000E010E00E94CA
:1000B6009F008823E1F38A3051F4BE016F5F7F4FC2
:1000C60080E80E947400198200E010E0F0CFE1E0C1
:1000D600F0E0EC0FFD1FE00FF11F80830F5F1F4F55
:0200E600E6CF63
:1000E800CF92DF92EF926B01E82E06C00E94A80023
:1000F8008FEFC81AD80AE80AF6018491E7FC8081D4
:0C0108008111F4CFEF90DF90CF900895AC
:100114008AB182608AB98AB18E7F8AB91092C0008E
:1001240088E98093C10086E08093C20087E690E06E
:0A0134009093C5008093C400089565
:10013E008091C00088231CF48091C600089580E051
:02014E00089512
:0E0150009091C00095FFFCCF8093C6000895EB
:04015E000C940000FD
:00000001FF
