:020000020000FC
:10000000B1E0A0E00BE70D930AE00D9303EB0D9335
:100010000BE90D930AEC0D9309ED0D9309EF0D9388
:100020000BE00D930BEF0D930BED0D931BEF1AB936
:1000300014E01BB91FEF14B910E017B918B93199C2
:100040000C9424000C944E0022272A3029F13327E7
:100050003A30F9F044274A3FC9F010E01BB9B1E04B
:10006000A0E0B10DA31FAC91ABB911E015B940D020
:1000700010E01BB9B1E0A0E0B10DA21FAC91ABB98B
:1000800012E015B935D043950C942B0033950C94A0
:10009000280023950C9425000C941F0029E02F3F85
:1000A00029F139E03F3FF9F044274A3FC9F010E019
:1000B0001BB9B1E0A0E0B10DA31FAC91ABB911E049
:1000C00015B916D010E01BB9B1E0A0E0B10DA21F28
:1000D000AC91ABB912E015B90BD043950C94550017
:1000E0003A950C9452002A950C944F000C941F00E2
:1000F0006AE070EA0000000000000000000000005C
:0C01000000007A95B9F76A95A1F7089500
:00000001FF
