:020000020000FC
:020000001AC024
:02001000FBC033
:10003400ECC02FEF2AB910E000E020E0D2D020E09D
:100044002093800025E02093810021E020936F001D
:100054007894BED0103021F120E0209380002093CA
:10006400810020936F00209385002093840022E078
:10007400209368002FE020936C0025E023BF88952F
:1000840020E02093680020936C0020E020938000FF
:1000940025E02093810021E020936F0010E0D9CF68
:1000A40026B12E3039F02D3039F02B3039F027308D
:1000B40039F0CFCF00E006C004E004C008E002C07D
:1000C4000CE000C07CD023B12E3039F02D3041F04B
:1000D4002B3049F0273051F0BCCF20E0020F09C08B
:1000E40021E0020F06C022E0020F03C023E0020F4A
:1000F40000C020E0209385002093840010E071D09C
:1001040000C0013021F426E02BB900E0A2CF023078
:1001140021F42BE52BB900E09CCF033021F42FE42C
:100124002BB900E096CF0A3021F427E72BB900E081
:1001340090CF043021F426E62BB900E08ACF0530B5
:1001440021F42DE62BB900E084CF063021F422E01F
:100154002BB900E07ECF0B3021F42FE12BB900E066
:1001640078CF073021F427E02BB900E072CF0830B4
:1001740021F42FE72BB900E06CCF093021F42FE6EE
:100184002BB900E066CF0C30B1F42EE42BB900E0BB
:1001940060CF0E3021F42FE42BB900E05ACF0030A9
:1001A40021F42FE32BB900E054CF0F3021F427E4DE
:1001B4002BB900E04ECF2DE32BB900E04ACF20E06D
:1001C40024B92FEF25B92FEF27B920E028B90895D6
:1001D40020E027B92FEF28B92FEF24B920E025B963
:1001E400089554E048EC38EC0000000000000000E2
:1001F4000000000000003A95B9F74A95A1F75A9516
:1002040089F70895EEDFD99A189511E02FEF2BB9ED
:0202140018953B
:00000001FF
