:020000020000FC
:020000001CC022
:020004006FC0CB
:02002C006BC0A7
:1000380076C0CFEFCDBFD8E0DEBFA097B1E0A0E09B
:100048000FE70D930AE00D9303EB0D930BE90D9366
:100058000AEC0D9309ED0D9309EF0D930BE00D9349
:100068000BEF0D930BED0D931BEF1AB914E01BB9B1
:100078001FEF14B916E015B910E01093850010E0D1
:100088001093840010E31093890014ED10938800F6
:1000980013E01093810012E01093800012E0109397
:1000A8006F0010E016BD1AEF17BD13E015BD12E082
:1000B80014BD12E010936E0013E01093690011E074
:1000C8001DBB11E01CBB789486E904E150E060E0B8
:1000D80070E090E0000000000C946E0023952A3038
:1000E80009F01895339520E03A3009F018954395B2
:1000F80030E04A3009F01895000018950A9510E08C
:100108001093850010E01093840009F01895522F81
:10011800632F742F20E030E040E004E1189586E971
:1001280010E016BD903021F0913071F09230C1F09E
:1001380010E01BB9B1E0A0E0B10DA51FAC91ABB9BF
:1001480016E015B991E0189510E01BB9B1E0A0E0F0
:10015800B10DA61FAC91ABB915E015B992E0189591
:1001680010E01BB9B1E0A0E0B10DA71FAC91ABB98D
:0801780013E015B993E018959E
:00000001FF
