:020000020000FC
:1000000000E007B90FEF08B90AB9000006B10370A4
:10001000003039F00130B1F0023031F10330A9F194
:10002000F5CF01E00BB942D0000F07FF0C9412008E
:100030000BB93CD0069500FF0C94180006B10030B7
:1000400089F3E4CF01E00BB942D0000F07FF0C9415
:1000500023000BB93CD0069500FF0C94290006B193
:100060000370013081F3D2CF08E10BB91FD004E255
:100070000BB91CD002E40BB919D001E80BB916D0AA
:1000800006B10370023081F3C1CF01E80BB90ED085
:1000900002E40BB90BD004E20BB908D008E10BB9AC
:1000A00005D006B10370033081F3B0CF15E028EC22
:1000B00038EC00000000000000000000000000001C
:1000C0003A95B9F72A95A1F71A9589F708951AE094
:1000D00024E634E6000000000000000000000000FC
:1000E00000003A95B9F72A95A1F71A9589F708956E
:00000001FF
