:020000020000FC
:040000000C94260036
:100048000C94650060E00EEF0AB90E94820008E295
:100058000BB900E20BB90E94820008E20BB900E27A
:100068000BB908E80BB900E80BB90E94820008E058
:100078000BB900E00BB908EE0BB900EE0BB90E9402
:10008800820008E00BB900E00BB908E60BB900E6FE
:100098000BB90E94820008E00BB900E00BB908E137
:1000A8000BB900E10BB90E94820000E90093C1007E
:1000B80007E60093C40078940C94620000000C9446
:1000C800620063956131B9F1623249F10091C6006D
:1000D80010E020E0100F200F207F110F110F110FDB
:1000E800110F0CE0020F0BB904E0020F0BB90CE082
:1000F800010F0BB904E0010F0BB9189552E048EC59
:1001080038EC0000000000000000000000000000C3
:100118003A95B9F74A95A1F75A9589F7089560E095
:1001280008E00BB900E00BB908E10BB900E10BB925
:100138000E948200189508EC0BB900EC0BB908E096
:0C0148000BB900E00BB90E948200189572
:00000001FF
