:020000020000FC
:10000000CFEFCDBFD8E0DEBFA097B1E0A0E00FE317
:100010000D9306E00D930BE50D930FE40D9306E6AB
:100020000D930DE60D930DE70D9307E00D930FE78C
:100030000D930FE60D931FEF1AB914B940990C9464
:1000400023000C94490022272A3019F133273A3033
:10005000E9F044274A3FB9F010E01BB9B1E0A0E055
:10006000B10DA31FAC91ABB911E015B910E01BB9EC
:10007000B1E0A0E0B10DA21FAC91ABB912E015B98F
:1000800043950C942A0033950C94270023950C94E7
:10009000240029E02F3F29F139E03F3FF9F04427C0
:1000A0004A3FC9F010E01BB9B1E0A0E0B10DA31FB9
:1000B000AC91ABB911E015B916D010E01BB9B1E0A5
:1000C000A0E0B10DA21FAC91ABB912E015B90BD0F5
:1000D00043950C9450003A950C944D002A950C943D
:1000E0004A000C941E0062E070EA0000000000006C
:1000F00000000000000000007A95B9F76A95A1F7AA
:02010000089560
:00000001FF
